:100F3100062A00FF00000000063C000000FF000040
:100F410006100000000000FF063000000000000055
:100F5100060800FF00FF00FF02280009021C000034
:100F6100020E00000236000002380000023A0000C2
:100F7100041600000000041E00000000021A000F09
:03000B000210835D
:10108300C0E0C0D0C28DE51B151B7002151AE51B0D
:10109300451A701AF51A751B64E5212401F521E43C
:1010A3003520F520E4351FF51FE4351EF51E758C3C
:0910B300FC758A17D0D0D0E032A0
:100FAA00438921E4F58CF58AD28C75A881120DF556
:100FBA0078227C007D007B007A00792A7E007F06F9
:100FCA00120CBEE5212421FFC007756D00756E1055
:100FDA00756F0075701078717C007D007B007A0057
:100FEA00792A7E007F06120CBED0077B107A007D1C
:080FFA00107C00120D0780CBF2
:10000E0000000000000000000000000000000000E2
:10001E0000000000000000000000000000000000D2
:10002E000000000007000F800F800F800F800F80F0
:10003E00070007000000000007000700070000008F
:10004E0000000E380E380E380E3806300000000054
:10005E000000000000000000000000000000000092
:10006E0000000C300C300C307FFE7FFE0C300C305C
:10007E000C300C307FFE7FFE0C300C300C3000004C
:10008E000000024002400FF81FF81A401A401FF0FD
:10009E000FF8025802581FF81FF0024002400000ED
:1000AE000000000000000E100E300E7000E001C0C7
:1000BE00038007000E700C70087000000000000036
:1000CE00000000000F001980198019800F000F0822
:1000DE000F9819F818F018E019F00F9800000000AA
:1000EE00000000000700070007000E0000000000DF
:1000FE0000000000000000000000000000000000F2
:10010E000000000000F001C0038007000E000E008A
:10011E000E000E000700038001C000F0000000007A
:10012E00000000000F00038001C000E000700070AE
:10013E000070007000E001C003800F00000000009E
:10014E000000000001801188099007E007E03FFCE5
:10015E003FFC07E007E009901188018000000000D5
:10016E0000000000000000000180018001800FF0FF
:10017E000FF00180018001800000000000000000EF
:10018E000000000000000000000000000000000061
:10019E000000000000000700070007000E0000002E
:1001AE0000000000000000000000000000001FF82A
:1001BE001FF800000000000000000000000000001A
:1001CE000000000000000000000000000000000021
:1001DE0000000000000007000700070000000000FC
:1001EE000000000000020006000E001C0038007027
:1001FE0000E001C0038007000E001C00000000009C
:10020E00000000000FF01C381C781CF81CF81DB8FC
:10021E001DB81F381F381E381C380FF000000000A4
:10022E00000000000180018003801F801F8003807A
:10023E00038003800380038003801FF00000000012
:10024E00000000000FE01C701C380038007000E049
:10025E0001C0038007000E381C381FF80000000094
:10026E00000000000FE01C701C380038007003C046
:10027E0003C0007000381C381C700FE00000000036
:10028E000000000000E001E003E006E00CE018E0F2
:10029E001FF81FF800E000E000E003F80000000087
:1002AE00000000001FF81C001C001C001C001FE0BA
:1002BE001FF0007800381C381C700FE000000000A2
:1002CE000000000003E007000E001C001C001FF0E1
:1002DE001FF81C381C381C381C380FF000000000AA
:1002EE00000000001FFC1C1C1C1C1C1C001C0038E9
:1002FE00007000E001C00380038003800000000056
:10030E00000000000FF01C381C381C381F3807E0A6
:10031E0007E01CF81C381C381C380FF000000000D9
:10032E00000000000FF01C381C381C381C381FF859
:10033E000FF800380038007000E007C00000000021
:10034E000000000000000000038003800380000016
:10035E000000038003800380000000000000000006
:10036E0000000000000000000380038003800000F6
:10037E0000000380038003800700000000000000DF
:10038E000000007000E001C0038007000E001C009A
:10039E001C000E000700038001C000E0007000008A
:1003AE00000000000000000000003FFC3FFC0000C9
:1003BE0000003FFC3FFC00000000000000000000B9
:1003CE0000001C000E000700038001C000E000705A
:1003DE00007000E001C0038007000E001C0000004A
:1003EE00000003C00FF01E7818380038007000E0CF
:1003FE0001C001C00000000001C001C001C000002A
:10040E0000000FF81C1C1C1C1C1C1C1C1CFC1CFCC7
:10041E001CFC1CFC1C001C001C001FF007F800003C
:10042E000000000003C007E00E701C381C381C389A
:10043E001C381FF81C381C381C381C3800000000F3
:10044E00000000001FF00E380E380E380E380FF078
:10045E000FF00E380E380E380E381FF00000000068
:10046E000000000007F00E381C381C001C001C0099
:10047E001C001C001C001C380E3807F00000000089
:10048E00000000001FE00E700E380E380E380E38C9
:10049E000E380E380E380E380E701FE000000000B9
:1004AE00000000001FF80E180E080E000E300FF0A0
:1004BE000FF00E300E000E080E181FF80000000090
:1004CE00000000001FF80E180E080E000E300FF080
:1004DE000FF00E300E000E000E001F000000000088
:1004EE000000000007F00E381C381C381C001C00E1
:1004FE001C001CF81C381C380E3807F800000000D1
:10050E00000000001C701C701C701C701C701FF012
:10051E001FF01C701C701C701C701C700000000002
:10052E00000000000FE0038003800380038003803F
:10053E00038003800380038003800FE0000000002F
:10054E000000000001FC0070007000700070007070
:10055E00007038703870387038700FE0000000008E
:10056E00000000001E380E380E700EE00FC00F8017
:10057E000F800FC00EE00E700E381E380000000007
:10058E00000000001F000E000E000E000E000E00F8
:10059E000E000E000E080E180E381FF80000000098
:1005AE00000000001C1C1E3C1F7C1FFC1FFC1DDCE1
:1005BE001C9C1C1C1C1C1C1C1C1C1C1C000000005D
:1005CE00000000001C1C1C1C1E1C1F1C1F9C1DDC84
:1005DE001CFC1C7C1C3C1C1C1C1C1C1C000000005D
:1005EE000000000003E007F00E381C1C1C1C1C1C35
:1005FE001C1C1C1C1C1C0E3807F003E00000000025
:10060E00000000001FF00E380E380E380E380FF0B6
:10061E000FF00E000E000E000E001F000000000076
:10062E000000000003E00F780E381C1C1C1C1C1C64
:10063E001C1C1C7C1CFC0FF80FF8003800FC000082
:10064E00000000001FF00E380E380E380E380FF076
:10065E000FF00E700E380E380E381E3800000000E7
:10066E00000000000FF01C381C381C381C000FE076
:10067E0007F000381C381C381C380FF00000000042
:10068E00000000001FFC19CC11C401C001C001C044
:10069E0001C001C001C001C001C007F00000000090
:1006AE00000000001C701C701C701C701C701C70F4
:1006BE001C701C701C701C701C700FE00000000081
:1006CE00000000001C701C701C701C701C701C70D4
:1006DE001C701C701C700EE007C003800000000030
:1006EE00000000001C1C1C1C1C1C1C1C1C1C1C9C2C
:1006FE001C9C1C9C0FF80FF8077007700000000080
:10070E00000000001C701C701C700EE007C00380FF
:10071E00038007C00EE01C701C701C7000000000EF
:10072E00000000001C701C701C701C701C700EE011
:10073E0007C003800380038003800FE000000000E9
:10074E00000000001FF81C381838107000E001C0BF
:10075E00038007000E081C181C381FF8000000004C
:10076E000000000007F00700070007000700070061
:10077E000700070007000700070007F00000000051
:10078E0000000000100018001C000E00070003807F
:10079E0001C000E000700038001C000700000000DF
:1007AE000000000007F00070007000700070007014
:1007BE000070007000700070007007F00000000004
:1007CE000000018003C007E00E701C38000000001E
:1007DE00000000000000000000000000000000000B
:1007EE0000000000000000000000000000000000FB
:1007FE000000000000000000000000007FFF7FFFEF
:10080E00000000001C001C00070007000000000094
:10081E0000000000000000000000000000000000CA
:10082E000000000000000000000000000FE000705B
:10083E0000700FF01C701C701C700FD800000000B0
:10084E00000000001E000E000E000E000FF00E380D
:10085E000E380E380E380E380E381BF00000000021
:10086E000000000000000000000000000FE01C70FF
:10087E001C701C001C001C701C700FE0000000009F
:10088E000000000000F80070007000700FF01C7087
:10089E001C701C701C701C701C700FD800000000A7
:1008AE000000000000000000000000000FE01C70BF
:1008BE001C701FF01C001C701C700FE0000000006C
:1008CE000000000003E007700770070007001FE03C
:1008DE001FE007000700070007001FC00000000010
:1008EE000000000000000000000000000FD81C7087
:1008FE001C701C701C700FF007F000701C700FE065
:10090E00000000001E000E000E000E000EF00F384C
:10091E000F380E380E380E380E381E380000000014
:10092E000000000001C001C001C000000FC001C0E6
:10093E0001C001C001C001C001C00FF800000000DD
:10094E0000000000007000700070000003F00070E6
:10095E00007000700070007000701C700CF007E0EA
:10096E00000000001E000E000E000E000E380E706D
:10097E000EE00FC00EE00E700E381E3800000000A4
:10098E00000000000FC001C001C001C001C001C0C5
:10099E0001C001C001C001C001C00FF8000000007D
:1009AE000000000000000000000000001FF81C9C6A
:1009BE001C9C1C9C1C9C1C9C1C9C1C9C00000000D9
:1009CE000000000000000000000000001FE01C708E
:1009DE001C701C701C701C701C701C7000000000C1
:1009EE000000000000000000000000000FE01C707E
:1009FE001C701C701C701C701C700FE0000000003E
:100A0E000000000000000000000000001BF00E3887
:100A1E000E380E380E380E380FF00E000E001F0076
:100A2E000000000000000000000000001FB038E0D1
:100A3E0038E038E038E038E01FE000E000E001F098
:100A4E000000000000000000000000001EF00FF883
:100A5E000F380E000E000E000E001F0000000000EA
:100A6E000000000000000000000000000FE01C303D
:100A7E001C300F8003E0187018700FE000000000AB
:100A8E000000000000000100030007001FF0070037
:100A9E000700070007000770077003E00000000062
:100AAE000000000000000000000000001C701C7020
:100ABE001C701C701C701C701C700FD80000000085
:100ACE000000000000000000000000001C701C7000
:100ADE001C701C701C700EE007C00380000000002C
:100AEE000000000000000000000000001C1C1C1C88
:100AFE001C1C1C9C1C9C0FF807700770000000004B
:100B0E000000000000000000000000001CE01CE0DF
:100B1E000FC0078007800FC01CE01CE00000000023
:100B2E000000000000000000000000000E380E382B
:100B3E000E380E380E3807F003E000E001C01F80BB
:100B4E000000000000000000000000001FE018E0A0
:100B5E0011C0038007000E201C601FE00000000083
:100B6E000000000001F803800380038007001C00D2
:100B7E001C00070003800380038001F800000000C2
:100B8E00000001C001C001C001C001C001C001C010
:100B9E0001C001C001C001C001C001C001C0000000
:100BAE00000000001F8001C001C001C000E000383D
:100BBE00003800E001C001C001C01F80000000002D
:100BCE00000000001F1C3B9C39DC38F800000000C0
:100BDE000000000000000000000000000000000007
:100F8100065600FF000000000662000000FF00009E
:100F9100064A0000000000FF065C0000000000009F
:080FA100064200FF00FF00FF03
:050003007E001210F563
:03000800D283227E
:1010F500C283C285D287C286EFF5A0D28675A0FFCE
:0111050022C7
:1010BC00AA067E001210F5E4FF1210D4AF03121032
:0810CC00D4E4FF1210D4AF05BB
:0E10D400C283D285D287C286EFF5A0D28622D3
:1010E20075A0FFD285C283D286C287D287E5A0FFD0
:0210F2007E007E
:0110F40022D9
:100DF50075A0FF7F0A7E007D007C0012104712114E
:100E05001A7FE87E037D007C001210477F011200E7
:100E1500037FE87E037D007C001210477F111200DE
:100E2500037F647D007C001210477F131200037F4F
:100E3500647D007C001210477F3A7E001210F57F1A
:100E4500661210D47F0A7D007C001210477D7F7CDE
:100E550000E4FFFE1211067F0A7E007D007C001271
:100E650010477D9F7C00E4FFFE1211107F0A7E0073
:100E75007D007C001210477F367E001210F57FBC86
:100E85001210D41200087F291210F51200087FB144
:100E95001210F57F031210D47F011210D40200083E
:0A110600AB077F2A1210BC0200089C
:0A111000AB077F2B1210BC02000891
:05111A00C284D2842212
:101002007DA07C00E4FFFE1211067D80E4FFFE124B
:1010120011107F2C7E001210F5E4F548F549AF78E7
:10102200AE771210D4AF7AAE791210D4AF7CAE7B09
:101032001210D40549E54970020548C394FFE548FA
:05104200946340DA2276
:100D0700A9078D828C83AF03AE02E56E2BCDE56D0F
:100D17003ACD24FFCD34FFFC121110AF82AE83E52C
:100D2700702582CDE56F3583CD24FFCD34FFFC12CE
:100D370011067F2C7E001210F5E4F552F553AC6FC7
:100D4700AD70AE6DAF6E120CE4EF7803CEA2E71371
:100D5700CE13D8F8FFC3E5539FE5529E4003020D1B
:100D6700F2E4F554F555E9FF3395E0FEEF7805C356
:100D770033CE33CED8F9240EF58274FC3EF583E5E5
:100D8700822553F582E5833552F583E493FD7C0094
:100D9700C374079555FF7E007401A807088005C333
:100DA70033CE33CED8F9FFEE5CFEEF5D4E6014AF65
:100DB70072AE711210D4AF74AE731210D4AF76AE98
:100DC700758009E4FFFE1210D41210D41210D40556
:100DD70055E55570020554C39408E55494004086C0
:0E0DE7000553E55370020552020D4502000847
:101047008F6B8E6A8D698C68E4FFFEFDFCAB6BAA23
:101057006AA969A868C3120CF66020E56B24FFF53E
:101067006BE56A34FFF56AE56934FFF569E56834CD
:0C107700FFF56800000000000080CD22A2
:03000000020EA548
:0C0EA500787FE4F6D8FD75817C020EEC2D
:100BEE00E709F608DFFA8046E709F208DFFA803EE9
:100BFE0088828C83E709F0A3DFFA8032E309F608D6
:100C0E00DFFA8078E309F208DFFA807088828C833D
:100C1E00E309F0A3DFFA806489828A83E0A3F608F1
:100C2E00DFFA805889828A83E0A3F208DFFA804CCB
:100C3E0080D280FA80C680D4806980F280338010A2
:100C4E0080A680EA809A80A880DA80E280CA80330B
:100C5E0089828A83ECFAE493A3C8C582C8CCC58383
:100C6E00CCF0A3C8C582C8CCC583CCDFE9DEE78053
:100C7E000D89828A83E493A3F608DFF9ECFAA9F0D2
:100C8E00EDFB2289828A83ECFAE0A3C8C582C8CC28
:100C9E00C583CCF0A3C8C582C8CCC583CCDFEADE41
:100CAE00E880DB89828A83E493A3F208DFF980CCA3
:100CBE0088F0EF60010E4E60C388F0ED2402B4049C
:100CCE000050B9F582EB2402B4040050AF23234543
:060CDE008223900C3E731E
:100CE400EF8DF0A4A8F0CF8CF0A428CE8DF0A42E24
:020CF400FE22DE
:100CF600EB9FF5F0EA9E42F0E99D42F0E89C45F054
:010D060022CA
:100EB100020FAAE493A3F8E493A34003F68001F29E
:100EC10008DFF48029E493A3F85407240CC8C33342
:100ED100C4540F4420C8834004F456800146F6DF11
:100EE100E4800B0102040810204080900F31E47E61
:100EF100019360BCA3FF543F30E509541FFEE49306
:100F0100A360010ECF54C025E060A840B8E493A3CC
:100F1100FAE493A3F8E493A3C8C582C8CAC583CAF7
:100F2100F0A3C8C582C8CAC583CADFE9DEE780BEAF
:010FA9000047
:00000001FF
