:100A290061400000004001F00118030802080208B3
:100A39000208020803080308011800F0000000007A
:100A490000000000000000C000E000F000C000C08D
:100A590000C000C000C000C000C000C0000000000D
:100A690000000000004001F0031803080300010022
:100A7900018000C000300018001803FC00000000CD
:100A890000000000000001F001180308010001C086
:100A99000180030002000308031801F000000000B0
:100AA900000000000000018001C001E001A00190E8
:100AB9000198018C03FC0180018001800000000085
:100AC90000000000000003F000100018005801F8B1
:100AD9000308020002000308011800F000000000EA
:100AE90000000000004001F003180008000801F8A8
:100AF900031C020802080308011801F000000000A5
:100B090000000000000003F801000180008000C01F
:100B1900004000600020002000300030000000008C
:100B290000000000004001F001180318011801F04D
:100B390001B8030802080208031801F000000000C8
:100B490000000000000001F0011803080208030872
:100B5900039802F002000308019800F00000000069
:100B690000000000020A000002080000020C000058
:080B7900020E00000210000052
:03002300020CE9E3
:0C0CE900309808C29875080075090132A7
:040CA7007F0A7E0042
:100CAB00E4FDFCC3ED9FEC9E5008000DBD00010C54
:020CBB0080F1C6
:010CBD002214
:100C4E008E148F158C168D177D017C007F2A7E00E9
:100C5E00120CBE7D017C00E4FFFE120CD57E00AFAF
:100C6E00157D017C00120CD57D017C00E4FFFE1287
:0C0C7E000CD57E00AF17E4FDFC020CD585
:040C0E007C00E4FF83
:100C12008E148F158C168D177D017C007F2B7E0024
:100C2200120CBE7D017C00E4FFFE120CD57E00AFEB
:100C3200157D017C00120CD57D017C00E4FFFE12C3
:0C0C42000CD57E00AF17E4FDFC020CD5C1
:10080000751200751364759850438920758DE6D272
:100810008ED299C29875A89075A0FF120CA7120CE1
:10082000F57FE87E03120CABE4FDFC7F01FE120CA9
:10083000BE7FE87E03120CABE4FDFC7F11FE120CC0
:10084000BE7F647E00120CABE4FDFC7F13120CBE75
:100850007F647E00120CAB7D017C007F3A120CBEDF
:100860007D017C007F667E00120CD5120CA77D7F77
:100870007C00E4FF120C4E120CA77D9F120C0E128E
:100880000CA77D017C007F36120CBEE4FDFC7FBC12
:10089000FE120CD5E4FDFC7F29FE120CBEE4F50A25
:1008A000F50BC3E50B94FFE50A64809480400302D6
:1008B0000A277D9F7C00E4FFFE120C4E120CA77DE0
:1008C0007F120C0E120CA77D017C007F2D120CBE36
:1008D000E4F50CF50D7D017C00E4FFFE120CD5055E
:1008E0000DE50D7002050CC39480E50C940040E505
:1008F000E4FDFCFFFE120CD57432250BF50BE4353C
:100900000AF50A7D017C007F2C7E00120CBEE4F506
:100910000CF50D7D017C00AF0BAE0A120CD57D01EC
:100920007C00AF0BAE0A120CD57D017C00AF0BAE84
:100930000A120CD5050DE50D7002050CC394FFE5F8
:100940000C944F40CE7D017C00AF0BAE0A120CD54B
:100950007D017C00AF0BAE0A120CD5E4FDFCAF0BA1
:10096000AE0A120CD57D107C00E4FFFE120C4E1274
:100970000CA77D10120C0E120CA77D017C007F2CA1
:10098000120CBEE4F50EF50FE4F510F511E50F2598
:10099000E0FFE50E33FE74002FF58274003EF58310
:1009A0007E007401A811088005C333CE33CED8F978
:1009B000FFE05EFEA3E05F4E7D017C00601C7FFFD8
:1009C0007E00120CD57D017C007FFF7E00120CD5CD
:1009D0007D017C007FFF7E008017E4FFFE120CD5B6
:1009E0007D017C00E4FFFE120CD57D017C00E4FF5C
:1009F000FE120CD50511E51170020510C39410E527
:100A00001094004088050FE50F7002050EC3941086
:100A1000E50E940050030209887420250BF50BE4C1
:090A2000350AF50A0208A280FE65
:100CBE00C283C285D287C286EFF5A0D286ED4C7074
:070CCE0002D28375A0FF2292
:100CD500C283D285D287C286EFF5A0D286ED4C704D
:040CE50002D2832292
:100C8A0075A0FFD285C283D286C287D287E5A0FD2E
:0C0C9A007C00EF4E7002D283AE04AF0568
:010CA600222B
:050CF500C284D284223C
:03000000020B826E
:0C0B8200787FE4F6D8FD758117020BC9DE
:100B8E00020800E493A3F8E493A34003F68001F275
:100B9E0008DFF48029E493A3F85407240CC8C33368
:100BAE00C4540F4420C8834004F456800146F6DF37
:100BBE00E4800B0102040810204080900A29E47E94
:100BCE00019360BCA3FF543F30E509541FFEE4932C
:100BDE00A360010ECF54C025E060A840B8E493A3F3
:100BEE00FAE493A3F8E493A3C8C582C8CAC583CA1E
:100BFE00F0A3C8C582C8CAC583CADFE9DEE780BED6
:010B81000073
:00000001FF
